:020000000A28CC
:10000800FE00030EF0000A08F100E7280B2883120F
:10001800AB0183010F288316071187100710910180
:1000280016148B178B158312071087140711D3200A
:100038000530A8000030A900AB010830F7000030F7
:10004800F8000030F900FA00F4200730F70000301B
:10005800F8000030F900FA00F4200630F70000300C
:10006800F8000030F900FA00F4200530F7000030FD
:10007800F8000030F900FA00F4200430F7000030EE
:10008800F8000030F900FA00F4200330F7000030DF
:10009800F8000030F900FA00F4200230F7000030D0
:1000A800F8000030F900FA00F4200130F7000030C1
:1000B800F8000030F900FA00F4202B080319612831
:1000C800050C0139A4000508013924070139AA00E3
:1000D8002A08A400A5010310A40DA50D2408FF3EBD
:1000E800A60025080318013EFF3EA7002608A8071A
:1000F8000318A90A2708A9070830F7000030F800F4
:100108002908FA002808F900F420AB016128F40056
:100118008710F501F60183120710F41F9628831241
:10012800071598288312071107147408F30073073A
:10013800F4000130F5070318F60A0030F6077608D0
:10014800803AFF0080307F02031DAC28083075021A
:10015800031C8F28F501F60183120710F21FB72838
:1001680083120715B9288312071107147208F300C0
:100178007307F2000130F5070318F60A0030F60796
:100188007608803AFF0080307F02031DCD280830B2
:100198007502031CB0288312071087140800F201A7
:1001A8000F308B20FF30F20009308B200830F2002E
:1001B8000A308B200730F2000B308B20F201F20A54
:1001C8000C308B2008000B1CED288312AB01AB0A06
:1001D8000B1071088A00700E8300FE0E7E0E090057
:0A01E8007908F20077088B20080068
:02400E00D43CA0
:00000001FF
