:020000000A28CC
:10000800FE00030EF0000A08F10084290B28831271
:10001800AF018301FB28F701F31F1928F209F3093F
:10002800F20A0319F30AF701F70AF51F2428F4095D
:10003800F509F40A0319F50A0130FF007F08F706ED
:10004800F801F9017208730403195B28F601F60A2E
:10005800F31B3A2801300310F20DF30DFF3E031D88
:100068002F280130FF007F08F6072C2801300310E5
:10007800F80DF90DFF3E031D3B2873087502031D9B
:10008800472872087402031C50287208F402730887
:10009800031CF503F502781401300310F30CF20C7D
:1000A800FF3E031D51280130F602031D3A28770848
:1000B80003196328F809F909F80A0319F90A7908EC
:1000C800F3007808F2000800F701F51F7228F40918
:1000D800F509F40A0319F50AF701F70AF31F792855
:1000E800F209F309F20A0319F30A720873040319EF
:1000F800A628F601F60AF31B8D2801300310F20D2D
:10010800F30DFF3E031D82280130FF007F08F6072C
:100118007F2873087502031D932872087402031C54
:100128009B287208F4027308031CF503F5020130DA
:100138000310F30CF20CFF3E031D9C280130F6025D
:10014800031D8D2877080319AE28F409F509F40A68
:100158000319F50A7508F3007408F2000800F400A2
:100168008710F501F60183120710F41FBE288312C9
:100178000715C0288312071107147408F3007307C2
:10018800F4000130F5070318F60A0030F607760880
:10019800803AFF0080307F02031DD42808307502A2
:1001A800031CB728F501F60183120710F21FDF2898
:1001B80083120715E1288312071107147208F30048
:1001C8007307F2000130F5070318F60A0030F60746
:1001D8007608803AFF0080307F02031DF52808303A
:1001E8007502031CD8288312071087140800831689
:1001F800071187100710910116148B178B1583129E
:1002080007108714071170210530AC000030AD00CD
:10021800AF014E30A0006130A1003A2183122F08AF
:1002280003191229050C0139A80005080139280706
:100238000139AE002E08A800A9010310A80DA90DC8
:100248002808FF3EAA0029080318013EFF3EAB001C
:100258002A08AC070318AD0A2B08AD072D08A10022
:100268002C08A0003A218312AF0112290130A20004
:100278000030A30083122308F9002208F8000A308E
:10028800F2000030F3002108F5002008F40068208F
:100298007308FB007208FA0091210A30F20000305E
:1002A800F3002108F5002008F4000F207308A100CE
:1002B8007208A0000130A2070318A30A0030A307A0
:1002C8002308803AFF0080307F02031D6D29093022
:1002D8002202031808003E29F2010F30B320FF3034
:1002E800F2000930B3200830F2000A30B32007309A
:1002F800F2000B30B320F201F20A0C30B3200800F0
:100308000B1C8A298312AF01AF0A0B1071088A00EF
:10031800700E8300FE0E7E0E09007A08F20078083F
:04032800B3200800F6
:02400E00D43CA0
:00000001FF
