:020000000A28CC
:10000800FE00030EF0000A08F100A4290B28831251
:10001800B60183014B290030A3000030A200003054
:10002800A1000030A0007508740473047204031959
:100038006428A401A40AF51B2F280130FA00031034
:10004800F20DF30DF40DF50DFA0B23280130FF0026
:100058007F08A4071F280130FA000310A00DA10D86
:10006800A20DA30DFA0B312875087902031D462845
:1000780074087802031D462873087702031D462872
:1000880072087602031C57287208F6027308031CCC
:10009800730FF7027408031C740FF8027508031C29
:1000A800750FF902201401300310F50CF40CF30C51
:1000B800F20CFF3E031D58280130A402031D2F280F
:1000C8002308F5002208F4002108F3002008F200B4
:1000D800080075087404730472040319B028FB013E
:1000E800FB0AF51B85280130FA000310F20DF30D09
:1000F800F40DF50DFA0B79280130FF007F08FB0796
:10010800752875087902031D932874087802031D61
:10011800932873087702031D932872087602031C3C
:10012800A3287208F6027308031C730FF7027408F9
:10013800031C740FF8027508031C750FF9020130CF
:100148000310F50CF40CF30CF20CFF3E031DA4286D
:100158000130FB02031D85287908F5007808F400B2
:100168007708F3007608F20008000130A900003093
:10017800AA0083122A08A1002908A0000030F5006F
:100188000030F4000030F3000A30F2002808F900CB
:100198002708F8002608F7002508F6006D207308E0
:1001A800A3007208A200B1210030F5000030F4006D
:1001B8000030F3000A30F2002808F9002708F80098
:1001C8002608F7002508F6000F207508A80074080F
:1001D800A7007308A6007208A5000130A907031834
:1001E800AA0A0030AA072A08803AFF0080307F0256
:1001F800031D00290930290203180800BD28F4004E
:100208008710F501F60183120710F41F0E298312D7
:10021800071510298312071107147408F3007307D0
:10022800F4000130F5070318F60A0030F6077608DF
:10023800803AFF0080307F02031D242908307502B0
:10024800031C0729F501F60183120710F21F2F2955
:100258008312071531298312071107147208F30056
:100268007307F2000130F5070318F60A0030F607A5
:100278007608803AFF0080307F02031D4529083048
:100288007502031C28298312071087140800831697
:10029800071187100710910116148B178B158312FD
:1002A80007108714071190210530B3000030B400FF
:1002B800B6010030A800BC30A7006130A6004E305F
:1002C800A500B9208312360803196629050C0139DF
:1002D800AF00050801392F070139B5003508AF000F
:1002E800B0010310AF0DB00D2F08FF3EB10030086C
:1002F8000318013EFF3EB2003108B3070318B40AE1
:100308003208B4073308A5003408A600A701A801DD
:10031800B9208312B6016629F2010F300321FF309C
:10032800F200093003210830F2000A3003210730B7
:10033800F2000B300321F201F20A0C30032108000D
:100348000B1CAA298312B601B60A0B1071088A0081
:10035800700E8300FE0E7E0E09002208F2002008AF
:040368000321080065
:02400E00D43CA0
:00000001FF
