:020000000A28CC
:10000800FE00030EF0000A08F100F1280B28831205
:10001800AB0183010F288316071187100710910180
:1000280016148B178B158312071087140711DD2000
:100038000530A8000030A900AB010830F7000030F7
:10004800F8000030F900FA00FE200730F700003011
:10005800F8000030F900FA00FE200630F700003002
:10006800F8000030F900FA00FE200530F7000030F3
:10007800F8000030F900FA00FE200430F7000030E4
:10008800F8000030F900FA00FE200330F7000030D5
:10009800F8000030F900FA00FE200230F7000030C6
:1000A800F8000030F900FA00FE200130F7000030B7
:1000B800F8000030F900FA00FE202B080319612827
:1000C800051C682885187428051885186D28AA0144
:1000D80076280518712885186B28051C8518762838
:1000E800AA01AA0A2A08A400A5010310A40DA50DB7
:1000F8002408FF3EA60025080318013EFF3EA7007E
:100108002608A8070318A90A2708A9070230F70034
:100118000030F8002908FA002808F900FE20AB0191
:100128006128F4008710F501F60183120710F41F07
:10013800A02883120715A228831207110714740830
:10014800F3007307F4000130F5070318F60A0030CE
:10015800F6077608803AFF0080307F02031DB62834
:1001680008307502031C9928F501F601831207105F
:10017800F21FC12883120715C32883120711071419
:100188007208F3007307F2000130F5070318F60A46
:100198000030F6077608803AFF0080307F02031DA2
:1001A800D72808307502031CBA2883120710871451
:1001B8000800F2010F309520FF30F2000930952039
:1001C8000830F2000A3095200730F2000B309520F5
:1001D800F201F20A0C30952008000B1CF728831254
:1001E800AB01AB0A0B1071088A00700E8300FE0E7B
:0E01F8007E0E09007908F200770895200800B5
:02400E00D43CA0
:00000001FF
